:100000000C94DF000C9407010C9407010C94070179
:100010000C9407010C9407010C9407010C94070140
:100020000C9407010C9407010C94EB090C94680ADA
:100030000C9407010C9407010C9407010C94070120
:100040000C9407010C9407010C9407010C94070110
:100050000C9407010C9407010C9407010C94A1095E
:100060000C9407010C9407010C9407010C940701F0
:100070000C9407010C9407010C9407010C940701E0
:100080000C9407010C9407010C9407010C940701D0
:100090000C949A0C0C9407010C9407010C94070122
:1000A0000C9407010C9407010C940701080B000243
:1000B0000202000009040000010202000005240001
:1000C0001001052401010104240206052406000193
:1000D0000705810310004009040100020A00000026
:1000E00007050202400000070583024000000403E8
:1000F000090412010002EF02014041233680000191
:100100000102030141726475696E6F204C4C43001B
:1001100041726475696E6F204C656F6E6172646FB9
:10012000001F1C1F1E1F1E1F1F1E1F1E32303A33B2
:10013000343A353000417567202033203230323474
:100140000000000000240027002A002D00300000DD
:1001500000000200090F0000030401000C00000071
:100160000000000000000000000000000000040883
:1001700002011040804010204080408008020401AD
:10018000804020100201108010204040200000001C
:1001900000250028002B002E003100040404040474
:1001A000030405020202020403020202020606061A
:1001B00006060604040202020404C60DDD11112421
:1001C0001FBECFEFDAE0DEBFCDBF22E0A4E9B1E091
:1001D00001C01D92A23EB207E1F711E0A0E0B1E03C
:1001E000E6E0F7E202C005900D92A439B107D9F715
:1001F00010E0CEEDD0E004C02197FE010E94441231
:10020000CD3DD107C9F70E94860E0C9476130C944D
:10021000000083E08093E9008091F200882319F0C8
:100220008AE38093E8000895FC018091030288230B
:1002300011F13FB7F89482E08093E9002091F20039
:10024000822F90E01816190614F481E090E08823BC
:1002500039F0289844E6409302024091F10040832F
:10026000222339F02091F200211103C02BE62093C4
:10027000E8003FBF08958FEF9FEF08952FB7F894E0
:1002800083E08093E9009091E800892F807295FFC8
:1002900004C09091F20080E4891B2FBF08958091E3
:1002A000FA0181110DC082E08093F60184E0809311
:1002B000F7011092F9011092F80181E08093FA01A0
:1002C00086EF91E00895282F30E0F901E15BFE4FC1
:1002D0009491F901E259FE4F849125563E4FF90160
:1002E0002491222309F430C09923E9F091509F30E2
:1002F000D0F4E92FF0E0E158FE4F0C944412AD0128
:10030000B1018E01A501A901930193019301B401EB
:10031000BA01BE01C201C8019301CC0190918000D5
:100320009F7790938000E22FF0E0EE0FFF1FE357DE
:10033000FE4FA591B4919FB7F894EC91611132C032
:1003400080958E238C939FBF0895909180009F7D10
:10035000E8CF90918000977FE4CF94B59F7794BDCC
:10036000E2CF94B59F7DFBCF909190009F779093C3
:100370009000D9CF909190009F7DF9CF90919000FF
:10038000977FF5CF9091C0009F779093C000CBCF1F
:100390009091C0009F7DF9CF9091C200977F90937C
:1003A000C200C1CF8E2BCECFCF93DF9390E0FC0164
:1003B000E259FE4F249185569E4FFC01849188237B
:1003C000D1F090E0880F991FFC01EF5BFE4FA591E3
:1003D000B491FC01E357FE4FC591D49161110EC059
:1003E0009FB7F8948C91E22FE0958E238C9328810F
:1003F000E223E8839FBFDF91CF9108958FB7F894F0
:10040000EC91E22BEC938FBFF6CF8230910538F060
:10041000880F991F880F991F05970197F1F7089585
:100420003FB7F8948091F2019091F301A091F4010B
:10043000B091F50126B5A89B05C02F3F19F0019694
:10044000A11DB11D3FBFBA2FA92F982F8827BC012E
:10045000CD01620F711D811D911D42E0660F771F56
:10046000881F991F4A95D1F708958F929F92AF9256
:10047000BF92CF92DF92EF92FF924B015C010E94FC
:1004800010026B017C010E9410026C197D098E091B
:100490009F09683E734081059105A8F321E0821A07
:1004A0009108A108B10888EEC80E83E0D81EE11CAF
:1004B000F11C81149104A104B10429F7FF90EF907D
:1004C000DF90CF90BF90AF909F908F9008950C9445
:1004D0000901089508954091DA015091DB012091BE
:1004E000D8013091D90142175307B4F49091E80034
:1004F0009570E1F39091E80092FD19C08093F100AE
:100500008091DA019091DB0101968F739927892BF5
:1005100019F48EEF8093E8008091DA019091DB016D
:1005200001969093DB018093DA0181E0089580E0E9
:100530000895EF92FF920F931F93CF93DF93F82EBE
:10054000192FE62E042F81E0860F880F0E946B0280
:1005500083E00E946B02CF2DD12FEC0EFD2EF11CFB
:10056000CE15DF05B9F007FF13C0FE0184910E948C
:100570006B02182F80E00E946B028123219681116B
:10058000EFCFDF91CF911F910F91FF90EF900895E2
:100590008881EDCF81E0F5CFDF92EF92FF920F934C
:1005A0001F93CF93DF93D82E8A01EB017B01E40EDA
:1005B000F51ECE15DF0559F0D7FE12C0FE0184915D
:1005C0000E946B0221968111F4CF0FEF1FEFC8013B
:1005D000DF91CF911F910F91FF90EF90DF900895E1
:1005E0008881EECF0F931F93CF93DF931F92CDB7E8
:1005F000DEB782E0898342E450E06CEA70E080E894
:100600000E94CC020E944F01DC0112960D911C91B8
:100610000115110589F0D801ED91FC910280F3815B
:10062000E02DBE016F5F7F4FC801099597FD04C0A3
:10063000F80100851185ECCF89810F90DF91CF9172
:100640001F910F910895615030F02091F100FC014D
:1006500020830196F8CF289884E6809302020895BB
:100660008F929F92AF92BF92CF92DF92EF92FF92C2
:100670000F931F93CF93DF936C017B018A018091CD
:100680000B01882309F45CC080910302882309F4DC
:1006900057C08091DE0180FF05C08091E00082603C
:1006A0008093E000E801B12C8AEFA82E93E0892E18
:1006B0002AE3922E209711F4BB20D9F10E943E012B
:1006C00081110AC0AA94AA20D9F161E070E080E00B
:1006D00090E00E943502EECF8C171D0611F00CF051
:1006E0008C2F9FB7F8948092E9002091E80025FDB7
:1006F00002C09FBFDFCF282F30E0C21BD30BF70112
:10070000815020F041914093F100FACFE20EF31EA8
:10071000BB2021F09092E800B12CEBCF8091E80053
:1007200085FDE7CF9092E800BB24B394209709F3AE
:10073000F3CF5D9884E68093DD01101611063CF03E
:1007400081E090E0F6019383828310E000E0C8012D
:10075000DF91CF911F910F91FF90EF90DF90CF909D
:10076000BF90AF909F908F900895CF93DF931F928B
:10077000CDB7DEB76983DC01ED91FC910280F38196
:10078000E02D41E050E0BE016F5F7F4F09950F9073
:10079000DF91CF9108950E943E0190E00895CF939C
:1007A000DF931F92CDB7DEB7FC018485958597FD59
:1007B00008C02FEF3FEF358724870F90DF91CF914F
:1007C0000895CE0101960E941401019719F48981C0
:1007D00090E0F3CF8FEF9FEFF0CF0F931F93CF9366
:1007E000DF931F92CDB7DEB78C01FC018485958520
:1007F00097FF0BC0CE0101960E941401019771F47E
:10080000898190E0F80195878487F8018485958532
:100810000F90DF91CF911F910F9108958FEF9FEF70
:10082000F1CFFC018485958597FD0BC09FB7F894A7
:1008300082E08093E9008091F2009FBF90E00196F2
:1008400008959FB7F89482E08093E9008091F200C8
:100850009FBF90E008952091B501260F3327331FE5
:1008600021323105ECF420914E02FC0190E080E051
:10087000243069F082E00895A091B5012191AC0186
:100880004B565E4FA40FB52FB11D2C9301968617C2
:1008900098F38091B501680F6093B50180E00895E9
:1008A00081E0089510924E0281E080934D021092F3
:1008B000280261E082E00E94630161E083E00E941F
:1008C0006301E9EBF0E080818E7F808380818D7F02
:1008D000808388E48093B80085E48093BC00089509
:1008E000CF93DF9391E0909394018823B9F0C09166
:1008F000B800D091BA008091BC008A7B8093BC0084
:1009000060E082E00E94630160E083E00E94630196
:100910000E945204D093BA00C093B800DF91CF91E7
:1009200008958F929F92AF92BF92CF92DF92EF92F3
:10093000FF920F931F93CF93DF93D0917702D13221
:1009400008F0D7C0182FC09176020E9410026B01E8
:100950007C0180914E0281116BC082E080934E0237
:1009600010934D028FEF80934C0210924B02D09364
:100970004A02A6E5B2E0EAE2F2E080E0D81391C0D4
:100980001092290280912902CC0FC82BC093290212
:1009900080912802813009F088C0109228020E94BC
:1009A00010026B017C01809129028093BB00809131
:1009B000500290915102A0915202B0915302892BA2
:1009C0008A2B8B2BA1F00E941002009150021091F3
:1009D000510220915202309153026C197D098E0907
:1009E0009F09061717072807390708F442C08091A6
:1009F000BC0083FDD8CF85EC8093BC000E94100220
:100A00006B017C0180914E02823009F450C08091CC
:100A10004C028F3F09F46FC080914C02803209F480
:100A20006CC080914C02803309F469C084E026C018
:100A30008091500290915102A0915202B0915302C4
:100A4000892B8A2B8B2B09F484CF0E941002809073
:100A5000500290905102A0905202B09053026C1933
:100A60007D098E099F0986169706A806B90608F023
:100A700070CF80914F020E94700485E01092550261
:100A80001092770210925402DF91CF911F910F9133
:100A9000FF90EF90DF90CF90BF90AF909F908F909E
:100AA00008959D9191938F5F69CF85EEA5CF809139
:100AB000500290915102A0915202B0915302892BA1
:100AC0008A2B8B2B09F49ECF0E94100200915002BA
:100AD0001091510220915202309153026C197D09FC
:100AE0008E099F09061717072807390708F08ACFCC
:100AF000C0CF81E0C3CF80E0C1CF82E0BFCF83E031
:100B0000BDCF0895E091070280910602E81730F406
:100B1000F0E0E85FFD4F808190E008958FEF9FEF58
:100B2000089590910702809106022FEF3FEF9817EA
:100B300048F4E92FF0E0E85FFD4F208130E09F5F4F
:100B400090930702C90108958091060290910702CF
:100B5000891B990B0895CF92DF92EF92FF920F932A
:100B60001F93CF93DF937C01CB018A012091540224
:100B7000222389F0EB016B01C40ED51ECC15DD05D7
:100B800069F06991D701ED91FC910190F081E02D20
:100B9000C7010995F3CF642F0E942B04C801DF9190
:100BA000CF911F910F91FF90EF90DF90CF9008951C
:100BB000CF93DF931F92CDB7DEB7698320915402A4
:100BC0002223F9F020917702203258F021E030E022
:100BD000FC013383228390E080E00F90DF91CF917E
:100BE000089580915502E82FF0E0EA5AFD4F99816F
:100BF00090838F5F809355028093770281E090E02D
:100C0000ECCF61E0CE0101960E942B04F7CF90E07B
:100C100080E00895AF92BF92CF92DF92EF92FF9261
:100C20000F931F93CF93DF93EC0188819981892BD8
:100C300089F06EBD0DB407FEFDCFBEB48B2DDF91E4
:100C4000CF911F910F91FF90EF90DF90CF90BF90C9
:100C5000AF9008958885998511E0892B09F010E8F7
:100C6000AA24A394862F812309F0A12C062F2C817E
:100C70003D814E815F8160E271EA87E090E00E94F1
:100C80002212F22EB02EE12CC22ED12CFF2019F010
:100C9000C6010E9405028A85877F09F042C08D85C2
:100CA0008F3F89F0902F912381E009F480E08A152D
:100CB00051F0EF85F8898F89992369F19081892B0B
:100CC0008083AA24A394E989FA898081998D892B4C
:100CD0008083FF2019F0C6010E9405028E858F3F98
:100CE00039F0EB89FC898081988D892309F0E12A0C
:100CF000E989FA899081898D8095892380838E8501
:100D00008F3F09F0BE2C88859985892BB9F5110F85
:100D10001111BCCF93CF9081809589238083A12C22
:100D2000D2CFE989FA898081998D892B8083FF2030
:100D300019F0C6010E9405028D858F3F49F0EF85AD
:100D4000F8898F89902F9123A9F09081892B808336
:100D5000E989FA899081898D8095892380838E85A0
:100D60008F3F69F2EB89FC898081988D892339F264
:100D7000E12AC5CF908180958923E9CF1695C8CF08
:100D8000DF92EF92FF920F931F93CF93DF93C09167
:100D9000D902D091DA02209709F472C00091D602EC
:100DA0001091D702D090D802E091D402F091D502F0
:100DB00080819181892B39F00280F381E02D90812F
:100DC00081819CBD8DBD34E0F32E60E08091D40222
:100DD0009091D5020E940A06FA94F110F6CF809104
:100DE000D8028823A1F16FEF8091D4029091D502AF
:100DF0000E940A067E0183E0E80EF11C8991D89ECC
:100E0000C0011124692F8091D4029091D5020E94D3
:100E10000A06EC16FD0691F7E7010150110919F7D2
:100E2000C0E08091D6029091D7020F9624E096956B
:100E300087952A95E1F7C817190610F56FEF80918D
:100E4000D4029091D5020E940A06CF5FEACF6FEFDD
:100E50008091D4029091D5020E940A067E0183E01F
:100E6000E80EF11C69918091D4029091D5020E9404
:100E70000A06CE15DF05B1F70150110941F7D0CFB1
:100E8000DF91CF911F910F91FF90EF90DF90089528
:100E9000CF93DF93EC018B818823A1F0888191E0CF
:100EA000909354028093760210925502109277022A
:100EB00081E00E94910491E0811190E0892FDF91FF
:100EC000CF910895109207021092060210925502D7
:100ED000109277020E94520489E692E09093E40116
:100EE0008093E3018AE692E09093E2018093E1012E
:100EF00081E08B83CE010E944807982F8111CECFCD
:100F0000DDCF1F93CF93DF93DC011496ED91FC911D
:100F1000E417F50710F490E01FC0122FEA01FC015E
:100F200081819281208131E03093540220937602B6
:100F30001092550210927702DC01ED91FC91028033
:100F4000F381E02D0995C817D90729F7812F0E9451
:100F5000910491E08111DFCF892FDF91CF911F9113
:100F600008952F923F924F925F926F927F928F924D
:100F70009F92AF92BF92CF92DF92EF92FF920F9328
:100F80001F93CF93DF935C011B016A01F12CE12CCD
:100F9000D50114968D919C9186010E191F09801719
:100FA000910708F48C01F501D0810E9410022B01F9
:100FB0003C0180914E02811172C0C02F013208F0B5
:100FC000C0E2F1E0F0934E0221E0C601801B910BDC
:100FD000E816F90608F420E020934D028FEF809385
:100FE0004C0210924B028C0F80934A02A1E0A09316
:100FF000290280912902DD0FD82BD09329028091FC
:101000002802813009F090C0109228020E9410023C
:101010002B013C01809129028093BB0080915002FA
:1010200090915102A0915202B0915302892B8A2BC8
:101030008B2BA1F00E94100220915002309151029E
:10104000409152025091530264197509860997091B
:10105000261737074807590708F442C08091BC009B
:1010600083FDD8CFB5ECB093BC000E9410022B01D9
:101070003C0180914E02813009F45AC080914B02AC
:101080008C1710F4C0914B02AAE2B2E0E8E0F2E063
:1010900080E08C1751F19D9191938F5FFACF8091F1
:1010A000500290915102A0915202B0915302892BAB
:1010B0008A2B8B2B09F47DCF0E94100220915002C5
:1010C00030915102409152025091530264197509B6
:1010D00086099709261737074807590708F069CF87
:1010E00080914F020E947004C0E010920702C093EA
:1010F0000602C017110609F057C041018E0C9F1C53
:10110000E401CE01881999098017910798F5D50156
:1011100011968D919C91DC01ED91FC910284F385F7
:10112000E02D09958993EDCFE5EEE093BC009DCFCE
:101130008091500290915102A0915202B0915302BD
:10114000892B8A2B8B2B09F494CF0E9410022091BB
:101150005002309151024091520250915302641951
:10116000750986099709261737074807590708F0B0
:1011700080CFB6CFE00EF11EEC14FD0408F408CFCA
:1011800081E0DF91CF911F910F91FF90EF90DF9061
:10119000CF90BF90AF909F908F907F906F905F9017
:1011A0004F903F902F90089580E0EBCFCF93DF9347
:1011B00000D0CDB7DEB78FE08A8321E041E050E078
:1011C000BE016E5F7F4F80910402909105020E94E4
:1011D000810741E050E0BE016F5F7F4F80910402C4
:1011E000909105020E94B10789810F900F90DF91C5
:1011F000CF9108954091D6025091D7029091DB0291
:101200008091DC02981310C0CA01039696958795C9
:1012100096958795480F591F70E060E08091D9023C
:101220009091DA020C946F13CA01880F991FF2CFC4
:10123000FC0101900020E9F73197AF01481B590BE1
:10124000BC0188E792E00C9430038F929F92AF929A
:10125000BF920F931F93CF93DF93CDB7DEB7A197C4
:101260000FB6F894DEBF0FBECDBF19A2423008F40E
:101270004AE08E010F5D1F4F842E912CB12CA12CC2
:10128000A50194010E942212E62FB901CA01EA3099
:10129000F4F4E05DD801EE938D01232B242B252B54
:1012A00079F790E080E0109719F0CD010E941809BD
:1012B000A1960FB6F894DEBF0FBECDBFDF91CF91E0
:1012C0001F910F91BF90AF909F908F900895E95C10
:1012D000E1CF85ED8093BC00809150029091510246
:1012E000A0915202B09153020796A11DB11D23E0B7
:1012F000B695A795979587952A95D1F72091BC002B
:1013000024FD03C010924E02089540915002509166
:1013100051026091520270915302452B462B472B8C
:1013200069F30097A105B10541F02AE22A95F1F78A
:1013300000C00197A109B109E1CF80914F020C943F
:1013400070041F920F920FB60F9211242F933F93A8
:101350008F939F93AF93BF938091EE019091EF0194
:10136000A091F001B091F1013091ED0123E0230F44
:101370002D3758F50196A11DB11D2093ED018093E5
:10138000EE019093EF01A093F001B093F1018091F1
:10139000F2019091F301A091F401B091F501019651
:1013A000A11DB11D8093F2019093F301A093F4016C
:1013B000B093F501BF91AF919F918F913F912F9184
:1013C0000F900FBE0F901F90189526E8230F0296DE
:1013D000A11DB11DD2CF1F920F920FB60F921124F3
:1013E0002F933F934F935F936F937F938F939F932D
:1013F000AF93BF93CF93EF93FF93C091E1008091A0
:10140000E100837F8093E100C3FF0FC01092E900E9
:1014100081E08093EB001092EC0082E38093ED007A
:101420001092030288E08093F000C2FF1AC00E946D
:1014300009018091DD01882341F08091DD01815017
:101440008093DD01811101C05D9A809102028823A1
:1014500041F080910202815080930202811101C00B
:10146000289AC4FF23C08091E2008E7E8160809321
:10147000E2008091E1008F7E8093E1008091DE01A7
:101480008E7E80618093DE01FF91EF91CF91BF91BD
:10149000AF919F918F917F916F915F914F913F910C
:1014A0002F910F900FBE0F901F901895C0FFECCF9B
:1014B0008091E2008E7E80618093E2008091E10065
:1014C0008E7E8093E1008091DE018E7E8160DACF96
:1014D0001F920F920FB60F921124CF92DF92EF92CC
:1014E000FF920F931F932F933F934F935F936F93AD
:1014F0007F938F939F93AF93BF93EF93FF93CF937C
:10150000DF93CDB7DEB76C97DEBFCDBF1092E90099
:101510008091E80083FF25C068E0CE0145960E94D7
:10152000230382EF8093E8008D8987FF39C0909173
:10153000E80090FFFCCF982F907609F034C19E8987
:101540004F89588D2F89F88C911131C0803861F501
:101550008091DF018093F1001092F1008EEF809373
:10156000E8006C960FB6F894DEBF0FBECDBFDF91DA
:10157000CF91FF91EF91BF91AF919F918F917F910B
:101580006F915F914F913F912F911F910F91FF901C
:10159000EF90DF90CF900F900FBE0F901F90189597
:1015A0009EEF9093E800C7CF1092F100D5CF913015
:1015B00059F48111D3CF4130510581F68091DF017B
:1015C0008D7F8093DF01CACF933049F48111C6CF5C
:1015D0004130510519F68091DF018260F2CF9530DC
:1015E00041F48091E80080FFFCCF20682093E30065
:1015F000B5CF963009F0A9C00B8D1C8D22E010925A
:10160000E9001092DB011092DA01F2122EC0109262
:10161000D9011092D8010E94F2021F8299E09983A9
:10162000FA8291E09E8390EA98879AEF99872091B9
:10163000DA013091DB01275F3F4F3C832B838D83A1
:101640001092E9001092DB011092DA011093D90197
:101650000093D80149E050E0BE016F5F7F4F80E00A
:101660000E94CC020E94F20279CF1093D90100931C
:10167000D8010E944F01DC0112960D911C910115B9
:10168000110509F451C1D801ED91FC910480F58157
:10169000E02DBE016B5E7F4FC8010995009709F0F0
:1016A0003EC1F80100851185EACFF3E0FF120EC0BC
:1016B0008F89882309F440C0823061F440E860E1FA
:1016C00080E191E00E949902811148CF81E28093EC
:1016D000EB0047CF813029F440E86BE084E091E0F3
:1016E000F1CF833099F70E944F01DC011296ED9003
:1016F000FC908E010F5F1F4F6801E114F10479F037
:10170000D701ED91FC910680F781E02DB801C7016A
:101710000995080F111DF701E084F184EECFD8017F
:101720001C92F60101900020E9F73197BF016C1976
:101730007D0940E0C601C6CF6EEE70E0FB0144912A
:1017400050E080E80E94CC0209CF973009F4BECF68
:10175000983021F481E08093F10000CF993009F0B6
:10176000FDCE837009F0B2CFE3E1F1E081E031E03A
:1017700096E32191222371F08093E9003093EB00EE
:10178000DF0111972C912093EC009093ED008F5F77
:10179000873079F78EE78093EA001092EA008F890C
:1017A00080930302DBCE8B8D9C8D1092E90010920A
:1017B000DB011092DA019093D9018093D801898DD1
:1017C000811192C08E899D89913A49F4813209F044
:1017D0007DCF47E050E064E071E080E0B3CF91322C
:1017E00009F074CF833269F48F89988DB0E0A0E05E
:1017F0008093000190930101A0930201B093030133
:10180000ADCE803269F48091E80082FFFCCF67E0C2
:1018100084E091E00E9423038BEF8093E8009ECE4A
:10182000823209F09BCE8F8980930B01EEEFFFE7A8
:10183000859194918B3F9C4D51F1E0E0F8E08091CF
:10184000040190910501A0910601B0910701803B30
:101850009440A105B105F1F480910B0180FD1AC0FF
:10186000EE3F8AE0F80789F587E797E79183808361
:10187000809160008093DC0188E19BE00FB6F894D2
:10188000A895809360000FBE9093600067CEEEEF46
:10189000FAE0D5CF808191818737974709F05ECEF6
:1018A000A895809160008861809360008091DC0140
:1018B00080936000EE3F2AE0F20789F08091FE0AF3
:1018C0009091FF0A9183808349CE808191818737EF
:1018D000980751F29093FF0A8093FE0AC5CF1092A9
:1018E000FF0A1092FE0A3ACE0E944F01DC011296C6
:1018F0000D911C910115110509F4E8CED801ED9167
:10190000FC910190F081E02DBE016B5E7F4FC8011C
:101910000995811123CEF80100851185EBCF1816AA
:1019200019060CF41BCED2CEF1E0FF12BECE62EF50
:1019300070E004CF1F920F920FB60F9211242F93D5
:101940003F934F935F936F937F938F939F93AF9347
:10195000BF93EF93FF938091B900887F803609F49D
:101960004AC0F0F5883209F4A7C018F5803109F4AF
:101970009BC0B8F4882309F4F9C0883009F494C0F6
:10198000FF91EF91BF91AF919F918F917F916F9157
:101990005F914F913F912F910F900FBE0F901F902D
:1019A0001895883109F488C0803251F780934C0231
:1019B00014C0803409F49DC040F48033B9F38833F7
:1019C000F9F680934C0285ECB0C0803509F485C0EF
:1019D000883509F496C0883499F60E946909D0CFF9
:1019E000883909F48CC038F5883729F050F48836E6
:1019F00011F0803729F683E080934E021092D701D0
:101A000057C0883809F47BC0803919F0803809F054
:101A1000B7CF8091D701803208F071C0E091D70133
:101A200081E08E0F8093D7018091BB00F0E0E954F4
:101A3000FE4F80833DC0803B39F0E0F4803A09F4EA
:101A400079C0883A09F09CCF84E080934E021092CE
:101A5000B6011092B501E091E301F091E40109951E
:101A60008091B50181110FC081E08093B501109282
:101A7000950109C0803C09F4A6CF883C09F4A3CFA6
:101A8000883B09F07DCFE091B60181E08E0F809315
:101A9000B601F0E0EB56FE4F80818093BB00909141
:101AA000B6018091B50129C0809129028093BB00C5
:101AB00085EC8093BC0064CF90914B0280914A02E8
:101AC000981758F5E0914B0281E08E0F80934B02FE
:101AD000F0E0E65DFD4F8081E9CFE0914B0281E0CF
:101AE0008E0F80934B028091BB00F0E0E65DFD4FCE
:101AF000808390914B0280914A029817C8F285E842
:101B0000D8CFE0914B0281E08E0F80934B02809101
:101B1000BB00F0E0E65DFD4F808380914D028111B6
:101B20005CCF81E08093280284EA8093BC0010920D
:101B30004E0226CF85EC8093BC0010924E0280911D
:101B4000D701803230F4E091D701F0E0E954FE4F44
:101B500010826091D70170E0E091E101F091E20123
:101B600087EB91E009951092D7010ACF10924C02B1
:101B700034CFFC01908190539A3008F090E081813D
:101B800080532AE0929F800D1124089510927B02C9
:101B900010927A0288EE93E0A0E0B0E080937C029D
:101BA00090937D02A0937E02B0937F022DE131E0FD
:101BB00030937902209378022FEF3FEF3093850224
:101BC000209384021092CB021092CA028093CC021E
:101BD0009093CD02A093CE02B093CF028FE291E01A
:101BE0009093C9028093C8021092D80281E080933A
:101BF000DB0282E08093DC021092DD028CE190E057
:101C00000E944A12DC0111961C921E9213961C929D
:101C10001E9212978FEF1B968C931B9795E01C9644
:101C20009C931C971E968C931E9784E01D968C9314
:101C30001D97EAE9F1E0E491F0E0EE0FFF1FE357B2
:101C4000FE4F8591949156969C938E935597EDE611
:101C5000F1E0E4915A96EC935A97EFE9F1E0E491C0
:101C6000F0E0EE0FFF1FE357FE4F859194915096E1
:101C70009C938E931F97E2E7F1E0E4915796EC93E3
:101C80005797E0EAF1E0E491F0E0EE0FFF1FE35731
:101C9000FE4F8591949152969C938E935197E3E7D2
:101CA000F1E0E4915996EC93599740E052E16AE7EC
:101CB00070E014964D935D936D937C93179781E03C
:101CC00090E019969C938E9318971A961C921A97E7
:101CD0005B961C925B97B093D502A093D4028CE3E1
:101CE00090E00E944A129093DA028093D902892BE5
:101CF00041F084E190E09093D7028093D6020C9457
:101D0000FA081092D7021092D6020895CF93DF936B
:101D1000CDB7DEB72D970FB6F894DEBF0FBECDBF9F
:101D2000789484B5826084BD84B5816084BD85B5B6
:101D3000826085BD85B5816085BD80916E008160C2
:101D400080936E0010928100809181008260809368
:101D5000810080918100816080938100809180006A
:101D600081608093800080919100826080939100D7
:101D700080919100816080939100809190008160BA
:101D8000809390008091C10084608093C100809115
:101D9000C10082608093C1008091C1008160809306
:101DA000C1008091C30081608093C3008091C00016
:101DB00082608093C0008091C20081608093C200E5
:101DC00080917A00846080937A0080917A008260AA
:101DD00080937A0080917A00816080937A0080916C
:101DE0007A00806880937A00109203021092DF01DB
:101DF0001092DE018091D70081608093D70080EA45
:101E00008093D80089B5806189BD89B5826089BD1C
:101E100009B400FEFDCF61E070E080E090E00E9438
:101E200035028091D8008F7C80618093D8008091AA
:101E3000E000807F8093E0008091E1008E7E8093BF
:101E4000E1008DE08093E200559A209A8FEF9FEF9A
:101E50009093850280938402E090D402F090D502A2
:101E6000F70183858F3F41F061E00E94D40161E07A
:101E7000F70183850E946301F70180819181892B9D
:101E800009F486C00FB7F8948091E001811127C052
:101E9000ECEAF1E08491EFE7F1E09491E82FF0E0D3
:101EA000EE0FFF1FEF5BFE4FA591B491EC91E9237C
:101EB00021F461E081E10E94630161E081E10E941F
:101EC000D4018CB580618CBD8CB580648CBD61E023
:101ED0008FE00E94D40161E080E10E94D4018091F2
:101EE000E0018F5F8093E0010FBF81E0F701838FF6
:101EF0000E94FA080E94C006809104029091050297
:101F0000009711F00E94E61286E090E00E944A12CB
:101F10007C0188E6F701808388EC92E092838183DC
:101F2000138280E290E095838483F0920502E09230
:101F300004021092070210920602109255021092AB
:101F400077020E94520489E692E09093E401809324
:101F5000E3018AE692E09093E2018093E10181E05F
:101F6000F7018383C7010E944807811133C08DE3C5
:101F700091E00E9418098FE491E00E9418090E94E4
:101F800009016AE070E080E090E00E943502F9CF3C
:101F900061E084850E94D401F70182858B7F60E037
:101FA00009F061E084850E946301F70185858F3F18
:101FB00041F061E00E94D40161E0F70185850E9453
:101FC0006301F70186858F3F09F48FCF60E00E949F
:101FD000D4018BCF0E94D60890E0880F892F881FEC
:101FE000990B892B09F4FEC082E591E00E94180943
:101FF0008FE491E00E9418094BE050E065E371E046
:10200000CE0101960E94F911CE010A960E94B90DE7
:10201000082FE981E154E331D8F40E2E000CFF0BB8
:10202000EC5EFF4E0C9444127D1028102810911085
:102030002810271028102810281071102810281098
:1020400084108F108D102810281028108B1012E08B
:10205000CE0105960E94B90DF82E48E050E06CE2E2
:1020600071E0CE0101960E94F911CE0101960E9405
:10207000B90DE82ECE0104960E94B90DD82ECE01DE
:1020800007960E94B90D382F1A8219822AE0622F12
:102090000E940212982F880F890F880F830F8A835E
:1020A0008D2D0E940212982F880F890F880F8D0D99
:1020B0008B838E2D0E940212982F880F890F880F14
:1020C0008E0D8C83602F70E02F2D30E0E1E2F1E087
:1020D00081E0811740F59491290F311D8F5F319672
:1020E000F8CF8A8111E0813609F4B2CF8B8117E0F5
:1020F0008E3609F0ADCF16E0ABCF8B8118E082377A
:1021000009F0A6CF14E0A4CF8B8115E0823709F047
:102110009FCF13E09DCF19E09BCF1AE099CF1BE032
:1021200097CF1CE095CF133028F0802F837011F4E7
:102130002F5F3F4FCB010396969587959695879590
:10214000EDE6F1E06E9FA0016F9F500D7E9F500D58
:1021500011244B5F5F4F840F951F820F931F67E021
:1021600070E00E940E12811101C087E08D832AE089
:102170008F2D622F0E940212982F880F890F880FCF
:102180008F0D8E83812F0E940212982F990F890F35
:10219000880F180F1F83802F0E940212982F880F1C
:1021A000890F880F800F888721E048E050E0BE014A
:1021B0006F5F7F4F80910402909105020E9481071A
:1021C0000E94D6089FE09C878F778D8721E042E0B0
:1021D00050E0BE01645F7F4F809104029091050240
:1021E0000E94810700E010E02FB7F8948091EE0183
:1021F0009091EF01A091F001B091F1012FBF809378
:10220000E9019093EA01A093EB01B093EC011982EC
:10221000E0900402F090050220E041E050E0BE01B1
:102220006F5F7F4FC7010E948107882341F047E01D
:1022300050E0BE016F5F7F4FC7010E94B107298147
:10224000EA80DB804091E9015091EA016091EB0165
:102250007091EC018091E5019091E601A091E70178
:10226000B091E801481B590B6A0B7B0B493E534068
:102270006105710508F47CC0F22EE894F7F886E752
:1022800091E00E9418094AE060E070E0CB010E94F2
:1022900025098FE491E00E9418096D2D70E084E01B
:1022A000759567958A95E1F7862F880F880F681BCB
:1022B000660F6D0D70E090E080E04AE00E94250915
:1022C0006AE388E792E00E94B5036E2D70E094E027
:1022D000759567959A95E1F7862F880F880F681B8B
:1022E000660F6E0D70E090E080E04AE00E942509E4
:1022F0006AE388E792E00E94B5038F2D90E024E026
:10230000959587952A95E1F7982F990F990FC82EE3
:10231000C91ACC0CCF0CD12CF12CE12C4AE0C7010E
:10232000B6010E9425098FE491E00E94180983E814
:1023300091E00E9418094AE0C701B6010E942509F0
:102340008FE491E00E9418098FE491E00E9418093F
:102350008091E9019091EA01A091EB01B091EC012B
:102360008093E5019093E601A093E701B093E80123
:102370008091D6029091D702892BB1F08091D90239
:102380009091DA02E091DB02E80FF92FF11D108243
:10239000E091DC02E80FF92FF11D1082E091DD02DF
:1023A000E80FF92FF11D10820E94C00601151105DA
:1023B00009F41ACF0E94000017CFCF93DF938091CA
:1023C000D9029091DA020E94E612C091D402D09113
:1023D000D502209759F08A819B81009711F00E94C5
:1023E000E612CE01DF91CF910C94E612DF91CF91EE
:1023F0000895FB01DC0102C005900D924150504050
:10240000D8F70895991B79E004C0991F961708F032
:10241000961B881F7A95C9F780950895AA1BBB1B48
:1024200051E107C0AA1FBB1FA617B70710F0A61BD4
:10243000B70B881F991F5A95A9F780959095BC01F5
:10244000CD010895A1E21A2EAA1BBB1BFD010DC0F0
:10245000AA1FBB1FEE1FFF1FA217B307E407F50754
:1024600020F0A21BB30BE40BF50B661F771F881F30
:10247000991F1A9469F760957095809590959B01C6
:10248000AC01BD01CF010895EE0FFF1F0590F4913F
:10249000E02D09940F931F93CF93DF938230910522
:1024A00010F482E090E0E091E002F091E10230E08F
:1024B00020E0B0E0A0E0309799F42115310509F44F
:1024C0004AC0281B390B24303105D8F58A819B81FD
:1024D0006115710589F1FB0193838283FE0111C0AF
:1024E000408151810281138148175907E0F0481754
:1024F000590799F4109761F012960C93129713965E
:102500001C933296CF01DF91CF911F910F910895C7
:102510000093E0021093E102F4CF2115310551F050
:102520004217530738F0A901DB019A01BD01DF0111
:10253000F801C1CFEF01F9CF9093E1028093E0025F
:10254000CDCFFE01E20FF31F819391932250310909
:1025500039832883D7CF2091DE023091DF02232BED
:1025600041F420910E0130910F013093DF0220934E
:10257000DE0220910C0130910D012115310541F44D
:102580002DB73EB74091100150911101241B350B1E
:10259000E091DE02F091DF02E217F307A0F42E1BB8
:1025A0003F0B2817390778F0AC014E5F5F4F2417B7
:1025B000350748F04E0F5F1F5093DF024093DE0255
:1025C000819391939FCFF0E0E0E09CCFCF93DF9396
:1025D0000097E9F0FC01329713821282A091E00289
:1025E000B091E102ED0130E020E01097A1F42081EC
:1025F0003181820F931F2091DE023091DF02281774
:10260000390709F061C0F093DF02E093DE02DF9149
:10261000CF910895EA01CE17DF07E8F54A815B8183
:102620009E0141155105B1F7E901FB83EA83499108
:102630005991C40FD51FEC17FD0761F4808191817A
:102640000296840F951FE901998388838281938183
:102650009B838A83F0E0E0E012968D919C91139722
:102660000097B9F52D913C911197CD010296820FFB
:10267000931F2091DE023091DF022817390739F6C7
:10268000309751F51092E1021092E002B093DF0210
:10269000A093DE02BCCFD383C28340815181840FDB
:1026A000951FC817D90761F44E5F5F4F88819981E4
:1026B000480F591F518340838A819B819383828372
:1026C0002115310509F0B0CFF093E102E093E0026B
:1026D0009ECFFD01DC01C0CF13821282D7CFDC0177
:1026E00001C06D9341505040E0F7089510E0CEEDE9
:1026F000D0E004C0FE010E9444122196CF3DD107D4
:06270000C9F7F894FFCFB9
:10270600FFFFFFFF00E10000000000000000E20202
:10271600800000C1808100000000000000B5033089
:1027260003CB0367021104CF03ED0300000000D8BA
:1027360005AB0507068105A40591058205436F755E
:102746006C646E27742066696E6420525443000DD3
:102756000A00525443206C6F737420706F77657251
:102766002C206C657427732073657420746865204B
:1027760074696D6521006272696768746E6573734A
:102786003A200063757272656E745365636F6E648A
:042796003A200000E5
:00000001FF
