:100000000C94DF000C9407010C9407010C94070179
:100010000C9407010C9407010C9407010C94070140
:100020000C9407010C9407010C94EB090C94680ADA
:100030000C9407010C9407010C9407010C94070120
:100040000C9407010C9407010C9407010C94070110
:100050000C9407010C9407010C9407010C94A1095E
:100060000C9407010C9407010C9407010C940701F0
:100070000C9407010C9407010C9407010C940701E0
:100080000C9407010C9407010C9407010C940701D0
:100090000C949A0C0C9407010C9407010C94070122
:1000A0000C9407010C9407010C940701080B000243
:1000B0000202000009040000010202000005240001
:1000C0001001052401010104240206052406000193
:1000D0000705810310004009040100020A00000026
:1000E00007050202400000070583024000000403E8
:1000F000090412010002EF02014041233680000191
:100100000102030141726475696E6F204C4C43001B
:1001100041726475696E6F204C656F6E6172646FB9
:10012000001F1C1F1E1F1E1F1F1E1F1E32333A33AF
:10013000313A343700417567202033203230323471
:100140000000000000240027002A002D00300000DD
:1001500000000200090F0000030401000C00000071
:100160000000000000000000000000000000040883
:1001700002011040804010204080408008020401AD
:10018000804020100201108010204040200000001C
:1001900000250028002B002E003100040404040474
:1001A000030405020202020403020202020606061A
:1001B00006060604040202020404C60D1A121124E3
:1001C0001FBECFEFDAE0DEBFCDBF22E0A4E9B1E091
:1001D00001C01D92A43EB207E1F711E0A0E0B1E03A
:1001E000E0E8F7E202C005900D92A439B107D9F713
:1001F00010E0CEEDD0E004C02197FE010E948112F4
:10020000CD3DD107C9F70E94860E0C94B3130C9410
:10021000000083E08093E9008091F200882319F0C8
:100220008AE38093E8000895FC0180910502882309
:1002300011F13FB7F89482E08093E9002091F20039
:10024000822F90E01816190614F481E090E08823BC
:1002500039F0289844E6409304024091F10040832D
:10026000222339F02091F200211103C02BE62093C4
:10027000E8003FBF08958FEF9FEF08952FB7F894E0
:1002800083E08093E9009091E800892F807295FFC8
:1002900004C09091F20080E4891B2FBF08958091E3
:1002A000FC0181110DC082E08093F80184E080930D
:1002B000F9011092FB011092FA0181E08093FC0198
:1002C00088EF91E00895282F30E0F901E15BFE4FBF
:1002D0009491F901E259FE4F849125563E4FF90160
:1002E0002491222309F430C09923E9F091509F30E2
:1002F000D0F4E92FF0E0E158FE4F0C948112AD01EB
:10030000B1018E01A501A901930193019301B401EB
:10031000BA01BE01C201C8019301CC0190918000D5
:100320009F7790938000E22FF0E0EE0FFF1FE357DE
:10033000FE4FA591B4919FB7F894EC91611132C032
:1003400080958E238C939FBF0895909180009F7D10
:10035000E8CF90918000977FE4CF94B59F7794BDCC
:10036000E2CF94B59F7DFBCF909190009F779093C3
:100370009000D9CF909190009F7DF9CF90919000FF
:10038000977FF5CF9091C0009F779093C000CBCF1F
:100390009091C0009F7DF9CF9091C200977F90937C
:1003A000C200C1CF8E2BCECFCF93DF9390E0FC0164
:1003B000E259FE4F249185569E4FFC01849188237B
:1003C000D1F090E0880F991FFC01EF5BFE4FA591E3
:1003D000B491FC01E357FE4FC591D49161110EC059
:1003E0009FB7F8948C91E22FE0958E238C9328810F
:1003F000E223E8839FBFDF91CF9108958FB7F894F0
:10040000EC91E22BEC938FBFF6CF8230910538F060
:10041000880F991F880F991F05970197F1F7089585
:100420003FB7F8948091F4019091F501A091F60105
:10043000B091F70126B5A89B05C02F3F19F0019692
:10044000A11DB11D3FBFBA2FA92F982F8827BC012E
:10045000CD01620F711D811D911D42E0660F771F56
:10046000881F991F4A95D1F708958F929F92AF9256
:10047000BF92CF92DF92EF92FF924B015C010E94FC
:1004800010026B017C010E9410026C197D098E091B
:100490009F09683E734081059105A8F321E0821A07
:1004A0009108A108B10888EEC80E83E0D81EE11CAF
:1004B000F11C81149104A104B10429F7FF90EF907D
:1004C000DF90CF90BF90AF909F908F9008950C9445
:1004D0000901089508954091DA015091DB012091BE
:1004E000D8013091D90142175307B4F49091E80034
:1004F0009570E1F39091E80092FD19C08093F100AE
:100500008091DA019091DB0101968F739927892BF5
:1005100019F48EEF8093E8008091DA019091DB016D
:1005200001969093DB018093DA0181E0089580E0E9
:100530000895EF92FF920F931F93CF93DF93F82EBE
:10054000192FE62E042F81E0860F880F0E946B0280
:1005500083E00E946B02CF2DD12FEC0EFD2EF11CFB
:10056000CE15DF05B9F007FF13C0FE0184910E948C
:100570006B02182F80E00E946B028123219681116B
:10058000EFCFDF91CF911F910F91FF90EF900895E2
:100590008881EDCF81E0F5CFDF92EF92FF920F934C
:1005A0001F93CF93DF93D82E8A01EB017B01E40EDA
:1005B000F51ECE15DF0559F0D7FE12C0FE0184915D
:1005C0000E946B0221968111F4CF0FEF1FEFC8013B
:1005D000DF91CF911F910F91FF90EF90DF900895E1
:1005E0008881EECF0F931F93CF93DF931F92CDB7E8
:1005F000DEB782E0898342E450E06CEA70E080E894
:100600000E94CC020E944F01DC0112960D911C91B8
:100610000115110589F0D801ED91FC910280F3815B
:10062000E02DBE016F5F7F4FC801099597FD04C0A3
:10063000F80100851185ECCF89810F90DF91CF9172
:100640001F910F910895615030F02091F100FC014D
:1006500020830196F8CF289884E6809304020895B9
:100660008F929F92AF92BF92CF92DF92EF92FF92C2
:100670000F931F93CF93DF936C017B018A018091CD
:100680000B01882309F45CC080910502882309F4DA
:1006900057C08091DE0180FF05C08091E00082603C
:1006A0008093E000E801B12C8AEFA82E93E0892E18
:1006B0002AE3922E209711F4BB20D9F10E943E012B
:1006C00081110AC0AA94AA20D9F161E070E080E00B
:1006D00090E00E943502EECF8C171D0611F00CF051
:1006E0008C2F9FB7F8948092E9002091E80025FDB7
:1006F00002C09FBFDFCF282F30E0C21BD30BF70112
:10070000815020F041914093F100FACFE20EF31EA8
:10071000BB2021F09092E800B12CEBCF8091E80053
:1007200085FDE7CF9092E800BB24B394209709F3AE
:10073000F3CF5D9884E68093DD01101611063CF03E
:1007400081E090E0F6019383828310E000E0C8012D
:10075000DF91CF911F910F91FF90EF90DF90CF909D
:10076000BF90AF909F908F900895CF93DF931F928B
:10077000CDB7DEB76983DC01ED91FC910280F38196
:10078000E02D41E050E0BE016F5F7F4F09950F9073
:10079000DF91CF9108950E943E0190E00895CF939C
:1007A000DF931F92CDB7DEB7FC018485958597FD59
:1007B00008C02FEF3FEF358724870F90DF91CF914F
:1007C0000895CE0101960E941401019719F48981C0
:1007D00090E0F3CF8FEF9FEFF0CF0F931F93CF9366
:1007E000DF931F92CDB7DEB78C01FC018485958520
:1007F00097FF0BC0CE0101960E941401019771F47E
:10080000898190E0F80195878487F8018485958532
:100810000F90DF91CF911F910F9108958FEF9FEF70
:10082000F1CFFC018485958597FD0BC09FB7F894A7
:1008300082E08093E9008091F2009FBF90E00196F2
:1008400008959FB7F89482E08093E9008091F200C8
:100850009FBF90E008952091B501260F3327331FE5
:1008600021323105ECF420915002FC0190E080E04F
:10087000243069F082E00895A091B5012191AC0186
:100880004B565E4FA40FB52FB11D2C9301968617C2
:1008900098F38091B501680F6093B50180E00895E9
:1008A00081E008951092500281E080934F021092EF
:1008B0002A0261E082E00E94630161E083E00E941D
:1008C0006301E9EBF0E080818E7F808380818D7F02
:1008D000808388E48093B80085E48093BC00089509
:1008E000CF93DF9391E0909394018823B9F0C09166
:1008F000B800D091BA008091BC008A7B8093BC0084
:1009000060E082E00E94630160E083E00E94630196
:100910000E945204D093BA00C093B800DF91CF91E7
:1009200008958F929F92AF92BF92CF92DF92EF92F3
:10093000FF920F931F93CF93DF93D0917902D1321F
:1009400008F0D7C0182FC09178020E9410026B01E6
:100950007C018091500281116BC082E08093500233
:1009600010934F028FEF80934E0210924D02D0935E
:100970004C02A8E5B2E0ECE2F2E080E0D81391C0CE
:1009800010922B0280912B02CC0FC82BC0932B020C
:1009900080912A02813009F088C010922A020E94B8
:1009A00010026B017C0180912B028093BB0080912F
:1009B000520290915302A0915402B0915502892B9A
:1009C0008A2B8B2BA1F00E941002009152021091F1
:1009D000530220915402309155026C197D098E0901
:1009E0009F09061717072807390708F442C08091A6
:1009F000BC0083FDD8CF85EC8093BC000E94100220
:100A00006B017C0180915002823009F450C08091CA
:100A10004E028F3F09F46FC080914E02803209F47C
:100A20006CC080914E02803309F469C084E026C016
:100A30008091520290915302A0915402B0915502BC
:100A4000892B8A2B8B2B09F484CF0E941002809073
:100A5000520290905302A0905402B09055026C192B
:100A60007D098E099F0986169706A806B90608F023
:100A700070CF809151020E94700485E0109257025D
:100A80001092790210925602DF91CF911F910F912F
:100A9000FF90EF90DF90CF90BF90AF909F908F909E
:100AA00008959D9191938F5F69CF85EEA5CF809139
:100AB000520290915302A0915402B0915502892B99
:100AC0008A2B8B2B09F49ECF0E94100200915202B8
:100AD0001091530220915402309155026C197D09F6
:100AE0008E099F09061717072807390708F08ACFCC
:100AF000C0CF81E0C3CF80E0C1CF82E0BFCF83E031
:100B0000BDCF0895E091090280910802E81730F402
:100B1000F0E0E65FFD4F808190E008958FEF9FEF5A
:100B2000089590910902809108022FEF3FEF9817E6
:100B300048F4E92FF0E0E65FFD4F208130E09F5F51
:100B400090930902C90108958091080290910902C9
:100B5000891B990B0895CF92DF92EF92FF920F932A
:100B60001F93CF93DF937C01CB018A012091560222
:100B7000222389F0EB016B01C40ED51ECC15DD05D7
:100B800069F06991D701ED91FC910190F081E02D20
:100B9000C7010995F3CF642F0E942B04C801DF9190
:100BA000CF911F910F91FF90EF90DF90CF9008951C
:100BB000CF93DF931F92CDB7DEB7698320915602A2
:100BC0002223F9F020917902203258F021E030E020
:100BD000FC013383228390E080E00F90DF91CF917E
:100BE000089580915702E82FF0E0E85AFD4F99816F
:100BF00090838F5F809357028093790281E090E029
:100C0000ECCF61E0CE0101960E942B04F7CF90E07B
:100C100080E00895AF92BF92CF92DF92EF92FF9261
:100C20000F931F93CF93DF93EC0188819981892BD8
:100C300089F06EBD0DB407FEFDCFBEB48B2DDF91E4
:100C4000CF911F910F91FF90EF90DF90CF90BF90C9
:100C5000AF9008958885998511E0892B09F010E8F7
:100C6000AA24A394862F812309F0A12C062F2C817E
:100C70003D814E815F8160E271EA87E090E00E94F1
:100C80005F12F22EB02EE12CC22ED12CFF2019F0D3
:100C9000C6010E9405028A85877F09F042C08D85C2
:100CA0008F3F89F0902F912381E009F480E08A152D
:100CB00051F0EF85F8898F89992369F19081892B0B
:100CC0008083AA24A394E989FA898081998D892B4C
:100CD0008083FF2019F0C6010E9405028E858F3F98
:100CE00039F0EB89FC898081988D892309F0E12A0C
:100CF000E989FA899081898D8095892380838E8501
:100D00008F3F09F0BE2C88859985892BB9F5110F85
:100D10001111BCCF93CF9081809589238083A12C22
:100D2000D2CFE989FA898081998D892B8083FF2030
:100D300019F0C6010E9405028D858F3F49F0EF85AD
:100D4000F8898F89902F9123A9F09081892B808336
:100D5000E989FA899081898D8095892380838E85A0
:100D60008F3F69F2EB89FC898081988D892339F264
:100D7000E12AC5CF908180958923E9CF1695C8CF08
:100D8000DF92EF92FF920F931F93CF93DF93C09167
:100D9000DB02D091DC02209709F472C00091D802E6
:100DA0001091D902D090DA02E091D602F091D702E8
:100DB00080819181892B39F00280F381E02D90812F
:100DC00081819CBD8DBD34E0F32E60E08091D60220
:100DD0009091D7020E940A06FA94F110F6CF809102
:100DE000DA028823A1F16FEF8091D6029091D702A9
:100DF0000E940A067E0183E0E80EF11C8991D89ECC
:100E0000C0011124692F8091D6029091D7020E94CF
:100E10000A06EC16FD0691F7E7010150110919F7D2
:100E2000C0E08091D8029091D9020F9624E0969567
:100E300087952A95E1F7C817190610F56FEF80918D
:100E4000D6029091D7020E940A06CF5FEACF6FEFD9
:100E50008091D6029091D7020E940A067E0183E01B
:100E6000E80EF11C69918091D6029091D7020E9400
:100E70000A06CE15DF05B1F70150110941F7D0CFB1
:100E8000DF91CF911F910F91FF90EF90DF90089528
:100E9000CF93DF93EC018B818823A1F0888191E0CF
:100EA0009093560280937802109257021092790222
:100EB00081E00E94910491E0811190E0892FDF91FF
:100EC000CF910895109209021092080210925702D1
:100ED000109279020E94520489E692E09093E40114
:100EE0008093E3018AE692E09093E2018093E1012E
:100EF00081E08B83CE010E944807982F8111CECFCD
:100F0000DDCF1F93CF93DF93DC011496ED91FC911D
:100F1000E417F50710F490E01FC0122FEA01FC015E
:100F200081819281208131E03093560220937802B2
:100F30001092570210927902DC01ED91FC9102802F
:100F4000F381E02D0995C817D90729F7812F0E9451
:100F5000910491E08111DFCF892FDF91CF911F9113
:100F600008952F923F924F925F926F927F928F924D
:100F70009F92AF92BF92CF92DF92EF92FF920F9328
:100F80001F93CF93DF935C011B016A01F12CE12CCD
:100F9000D50114968D919C9186010E191F09801719
:100FA000910708F48C01F501D0810E9410022B01F9
:100FB0003C0180915002811172C0C02F013208F0B3
:100FC000C0E2F1E0F093500221E0C601801B910BDA
:100FD000E816F90608F420E020934F028FEF809383
:100FE0004E0210924D028C0F80934C02A1E0A09310
:100FF0002B0280912B02DD0FD82BD0932B028091F6
:101000002A02813009F090C010922A020E94100238
:101010002B013C0180912B028093BB0080915202F6
:1010200090915302A0915402B0915502892B8A2BC2
:101030008B2BA1F00E94100220915202309153029A
:101040004091540250915502641975098609970917
:10105000261737074807590708F442C08091BC009B
:1010600083FDD8CFB5ECB093BC000E9410022B01D9
:101070003C0180915002813009F45AC080914D02A8
:101080008C1710F4C0914D02ACE2B2E0EAE0F2E05D
:1010900080E08C1751F19D9191938F5FFACF8091F1
:1010A000520290915302A0915402B0915502892BA3
:1010B0008A2B8B2B09F47DCF0E94100220915202C3
:1010C00030915302409154025091550264197509B0
:1010D00086099709261737074807590708F069CF87
:1010E000809151020E947004C0E010920902C093E6
:1010F0000802C017110609F057C041018E0C9F1C51
:10110000E401CE01881999098017910798F5D50156
:1011100011968D919C91DC01ED91FC910284F385F7
:10112000E02D09958993EDCFE5EEE093BC009DCFCE
:101130008091520290915302A0915402B0915502B5
:10114000892B8A2B8B2B09F494CF0E9410022091BB
:101150005202309153024091540250915502641949
:10116000750986099709261737074807590708F0B0
:1011700080CFB6CFE00EF11EEC14FD0408F408CFCA
:1011800081E0DF91CF911F910F91FF90EF90DF9061
:10119000CF90BF90AF909F908F907F906F905F9017
:1011A0004F903F902F90089580E0EBCFCF93DF9347
:1011B00000D0CDB7DEB78FE08A8321E041E050E078
:1011C000BE016E5F7F4F80910602909107020E94E0
:1011D000810741E050E0BE016F5F7F4F80910602C2
:1011E000909107020E94B10789810F900F90DF91C3
:1011F000CF9108954091D8025091D9029091DD028B
:101200008091DE02981310C0CA01039696958795C7
:1012100096958795480F591F70E060E08091DB023A
:101220009091DC020C94AC13CA01880F991FF2CF85
:10123000FC0101900020E9F73197AF01481B590BE1
:10124000BC018AE792E00C9430038F929F92AF9298
:10125000BF920F931F93CF93DF93CDB7DEB7A197C4
:101260000FB6F894DEBF0FBECDBF19A2423008F40E
:101270004AE08E010F5D1F4F842E912CB12CA12CC2
:10128000A50194010E945F12E62FB901CA01EA305C
:10129000F4F4E05DD801EE938D01232B242B252B54
:1012A00079F790E080E0109719F0CD010E941809BD
:1012B000A1960FB6F894DEBF0FBECDBFDF91CF91E0
:1012C0001F910F91BF90AF909F908F900895E95C10
:1012D000E1CF85ED8093BC00809152029091530242
:1012E000A0915402B09155020796A11DB11D23E0B3
:1012F000B695A795979587952A95D1F72091BC002B
:1013000024FD03C010925002089540915202509162
:1013100053026091540270915502452B462B472B86
:1013200069F30097A105B10541F02AE22A95F1F78A
:1013300000C00197A109B109E1CF809151020C943D
:1013400070041F920F920FB60F9211242F933F93A8
:101350008F939F93AF93BF938091F0019091F10190
:10136000A091F201B091F3013091EF0123E0230F3E
:101370002D3758F50196A11DB11D2093EF018093E3
:10138000F0019093F101A093F201B093F3018091E9
:10139000F4019091F501A091F601B091F701019649
:1013A000A11DB11D8093F4019093F501A093F60166
:1013B000B093F701BF91AF919F918F913F912F9182
:1013C0000F900FBE0F901F90189526E8230F0296DE
:1013D000A11DB11DD2CF1F920F920FB60F921124F3
:1013E0002F933F934F935F936F937F938F939F932D
:1013F000AF93BF93CF93EF93FF93C091E1008091A0
:10140000E100837F8093E100C3FF0FC01092E900E9
:1014100081E08093EB001092EC0082E38093ED007A
:101420001092050288E08093F000C2FF1AC00E946B
:1014300009018091DD01882341F08091DD01815017
:101440008093DD01811101C05D9A8091040288239F
:1014500041F080910402815080930402811101C007
:10146000289AC4FF23C08091E2008E7E8160809321
:10147000E2008091E1008F7E8093E1008091DE01A7
:101480008E7E80618093DE01FF91EF91CF91BF91BD
:10149000AF919F918F917F916F915F914F913F910C
:1014A0002F910F900FBE0F901F901895C0FFECCF9B
:1014B0008091E2008E7E80618093E2008091E10065
:1014C0008E7E8093E1008091DE018E7E8160DACF96
:1014D0001F920F920FB60F921124CF92DF92EF92CC
:1014E000FF920F931F932F933F934F935F936F93AD
:1014F0007F938F939F93AF93BF93EF93FF93CF937C
:10150000DF93CDB7DEB76C97DEBFCDBF1092E90099
:101510008091E80083FF25C068E0CE0145960E94D7
:10152000230382EF8093E8008D8987FF39C0909173
:10153000E80090FFFCCF982F907609F034C19E8987
:101540004F89588D2F89F88C911131C0803861F501
:101550008091DF018093F1001092F1008EEF809373
:10156000E8006C960FB6F894DEBF0FBECDBFDF91DA
:10157000CF91FF91EF91BF91AF919F918F917F910B
:101580006F915F914F913F912F911F910F91FF901C
:10159000EF90DF90CF900F900FBE0F901F90189597
:1015A0009EEF9093E800C7CF1092F100D5CF913015
:1015B00059F48111D3CF4130510581F68091DF017B
:1015C0008D7F8093DF01CACF933049F48111C6CF5C
:1015D0004130510519F68091DF018260F2CF9530DC
:1015E00041F48091E80080FFFCCF20682093E30065
:1015F000B5CF963009F0A9C00B8D1C8D22E010925A
:10160000E9001092DB011092DA01F2122EC0109262
:10161000D9011092D8010E94F2021F8299E09983A9
:10162000FA8291E09E8390EA98879AEF99872091B9
:10163000DA013091DB01275F3F4F3C832B838D83A1
:101640001092E9001092DB011092DA011093D90197
:101650000093D80149E050E0BE016F5F7F4F80E00A
:101660000E94CC020E94F20279CF1093D90100931C
:10167000D8010E944F01DC0112960D911C910115B9
:10168000110509F451C1D801ED91FC910480F58157
:10169000E02DBE016B5E7F4FC8010995009709F0F0
:1016A0003EC1F80100851185EACFF3E0FF120EC0BC
:1016B0008F89882309F440C0823061F440E860E1FA
:1016C00080E191E00E949902811148CF81E28093EC
:1016D000EB0047CF813029F440E86BE084E091E0F3
:1016E000F1CF833099F70E944F01DC011296ED9003
:1016F000FC908E010F5F1F4F6801E114F10479F037
:10170000D701ED91FC910680F781E02DB801C7016A
:101710000995080F111DF701E084F184EECFD8017F
:101720001C92F60101900020E9F73197BF016C1976
:101730007D0940E0C601C6CF6EEE70E0FB0144912A
:1017400050E080E80E94CC0209CF973009F4BECF68
:10175000983021F481E08093F10000CF993009F0B6
:10176000FDCE837009F0B2CFE3E1F1E081E031E03A
:1017700096E32191222371F08093E9003093EB00EE
:10178000DF0111972C912093EC009093ED008F5F77
:10179000873079F78EE78093EA001092EA008F890C
:1017A00080930502DBCE8B8D9C8D1092E900109208
:1017B000DB011092DA019093D9018093D801898DD1
:1017C000811192C08E899D89913A49F4813209F044
:1017D0007DCF47E050E064E071E080E0B3CF91322C
:1017E00009F074CF833269F48F89988DB0E0A0E05E
:1017F0008093000190930101A0930201B093030133
:10180000ADCE803269F48091E80082FFFCCF67E0C2
:1018100084E091E00E9423038BEF8093E8009ECE4A
:10182000823209F09BCE8F8980930B01EEEFFFE7A8
:10183000859194918B3F9C4D51F1E0E0F8E08091CF
:10184000040190910501A0910601B0910701803B30
:101850009440A105B105F1F480910B0180FD1AC0FF
:10186000EE3F8AE0F80789F587E797E79183808361
:10187000809160008093DC0188E19BE00FB6F894D2
:10188000A895809360000FBE9093600067CEEEEF46
:10189000FAE0D5CF808191818737974709F05ECEF6
:1018A000A895809160008861809360008091DC0140
:1018B00080936000EE3F2AE0F20789F08091FE0AF3
:1018C0009091FF0A9183808349CE808191818737EF
:1018D000980751F29093FF0A8093FE0AC5CF1092A9
:1018E000FF0A1092FE0A3ACE0E944F01DC011296C6
:1018F0000D911C910115110509F4E8CED801ED9167
:10190000FC910190F081E02DBE016B5E7F4FC8011C
:101910000995811123CEF80100851185EBCF1816AA
:1019200019060CF41BCED2CEF1E0FF12BECE62EF50
:1019300070E004CF1F920F920FB60F9211242F93D5
:101940003F934F935F936F937F938F939F93AF9347
:10195000BF93EF93FF938091B900887F803609F49D
:101960004AC0F0F5883209F4A7C018F5803109F4AF
:101970009BC0B8F4882309F4F9C0883009F494C0F6
:10198000FF91EF91BF91AF919F918F917F916F9157
:101990005F914F913F912F910F900FBE0F901F902D
:1019A0001895883109F488C0803251F780934E022F
:1019B00014C0803409F49DC040F48033B9F38833F7
:1019C000F9F680934E0285ECB0C0803509F485C0ED
:1019D000883509F496C0883499F60E946909D0CFF9
:1019E000883909F48CC038F5883729F050F48836E6
:1019F00011F0803729F683E0809350021092D701CE
:101A000057C0883809F47BC0803919F0803809F054
:101A1000B7CF8091D701803208F071C0E091D70133
:101A200081E08E0F8093D7018091BB00F0E0E954F4
:101A3000FE4F80833DC0803B39F0E0F4803A09F4EA
:101A400079C0883A09F09CCF84E0809350021092CC
:101A5000B6011092B501E091E301F091E40109951E
:101A60008091B50181110FC081E08093B501109282
:101A7000950109C0803C09F4A6CF883C09F4A3CFA6
:101A8000883B09F07DCFE091B60181E08E0F809315
:101A9000B601F0E0EB56FE4F80818093BB00909141
:101AA000B6018091B50129C080912B028093BB00C3
:101AB00085EC8093BC0064CF90914D0280914C02E4
:101AC000981758F5E0914D0281E08E0F80934D02FA
:101AD000F0E0E45DFD4F8081E9CFE0914D0281E0CF
:101AE0008E0F80934D028091BB00F0E0E45DFD4FCE
:101AF000808390914D0280914C029817C8F285E83E
:101B0000D8CFE0914D0281E08E0F80934D028091FD
:101B1000BB00F0E0E45DFD4F808380914F028111B6
:101B20005CCF81E080932A0284EA8093BC0010920B
:101B3000500226CF85EC8093BC0010925002809119
:101B4000D701803230F4E091D701F0E0E954FE4F44
:101B500010826091D70170E0E091E101F091E20123
:101B600087EB91E009951092D7010ACF10924E02AF
:101B700034CFFC01908190539A3008F090E081813D
:101B800080532AE0929F800D1124089510927D02C7
:101B900010927C0288EE93E0A0E0B0E080937E0299
:101BA00090937F02A0938002B09381022DE131E0F7
:101BB00030937B0220937A022FEF3FEF309387021E
:101BC000209386021092CD021092CC028093CE0216
:101BD0009093CF02A093D002B093D1028FE291E014
:101BE0009093CB028093CA021092DA0281E0809334
:101BF000DD0282E08093DE021092DF028CE190E051
:101C00000E948712DC0111961C921E9213961C9260
:101C10001E9212978FEF1B968C931B9795E01C9644
:101C20009C931C971E968C931E9784E01D968C9314
:101C30001D97EAE9F1E0E491F0E0EE0FFF1FE357B2
:101C4000FE4F8591949156969C938E935597EDE611
:101C5000F1E0E4915A96EC935A97EFE9F1E0E491C0
:101C6000F0E0EE0FFF1FE357FE4F859194915096E1
:101C70009C938E931F97E2E7F1E0E4915796EC93E3
:101C80005797E0EAF1E0E491F0E0EE0FFF1FE35731
:101C9000FE4F8591949152969C938E935197E3E7D2
:101CA000F1E0E4915996EC93599740E052E16AE7EC
:101CB00070E014964D935D936D937C93179781E03C
:101CC00090E019969C938E9318971A961C921A97E7
:101CD0005B961C925B97B093D702A093D6028CE3DD
:101CE00090E00E9487129093DC028093DB02892BA4
:101CF00041F084E190E09093D9028093D8020C9453
:101D0000FA081092D9021092D8020895CF93DF9367
:101D1000CDB7DEB72D970FB6F894DEBF0FBECDBF9F
:101D2000789484B5826084BD84B5816084BD85B5B6
:101D3000826085BD85B5816085BD80916E008160C2
:101D400080936E0010928100809181008260809368
:101D5000810080918100816080938100809180006A
:101D600081608093800080919100826080939100D7
:101D700080919100816080939100809190008160BA
:101D8000809390008091C10084608093C100809115
:101D9000C10082608093C1008091C1008160809306
:101DA000C1008091C30081608093C3008091C00016
:101DB00082608093C0008091C20081608093C200E5
:101DC00080917A00846080937A0080917A008260AA
:101DD00080937A0080917A00816080937A0080916C
:101DE0007A00806880937A00109205021092DF01D9
:101DF0001092DE018091D70081608093D70080EA45
:101E00008093D80089B5806189BD89B5826089BD1C
:101E100009B400FEFDCF61E070E080E090E00E9438
:101E200035028091D8008F7C80618093D8008091AA
:101E3000E000807F8093E0008091E1008E7E8093BF
:101E4000E1008DE08093E200559A209A8FEF9FEF9A
:101E50009093870280938602E090D602F090D7029A
:101E6000F70183858F3F41F061E00E94D40161E07A
:101E7000F70183850E946301F70180819181892B9D
:101E800009F486C00FB7F8948091E001811127C052
:101E9000ECEAF1E08491EFE7F1E09491E82FF0E0D3
:101EA000EE0FFF1FEF5BFE4FA591B491EC91E9237C
:101EB00021F461E081E10E94630161E081E10E941F
:101EC000D4018CB580618CBD8CB580648CBD61E023
:101ED0008FE00E94D40161E080E10E94D4018091F2
:101EE000E0018F5F8093E0010FBF81E0F701838FF6
:101EF0000E94FA080E94C006809106029091070293
:101F0000009711F00E94231386E090E00E94871250
:101F10007C0188E6F70180838AEC92E092838183DA
:101F2000138280E290E095838483F0920702E0922E
:101F300006021092090210920802109257021092A3
:101F400079020E94520489E692E09093E401809322
:101F5000E3018AE692E09093E2018093E10181E05F
:101F6000F7018383C7010E944807811133C08DE3C5
:101F700091E00E9418098FE491E00E9418090E94E4
:101F800009016AE070E080E090E00E943502F9CF3C
:101F900061E084850E94D401F70182858B7F60E037
:101FA00009F061E084850E946301F70185858F3F18
:101FB00041F061E00E94D40161E0F70185850E9453
:101FC0006301F70186858F3F09F48FCF60E00E949F
:101FD000D4018BCF0E94D60890E0880F892F881FEC
:101FE000990B892B09F4FCC082E591E00E94180945
:101FF0008FE491E00E9418094BE050E065E371E046
:10200000CE0101960E943612CE010A960E94B90DA9
:10201000082FE981E154E33118F50E2E000CFF0B77
:10202000EC5EFF4E0C9481127910301030108D1040
:1020300030108F103010301030102710301030104A
:1020400080108B10891030103010301087108A816A
:1020500011E0813629F08B8116E08E3609F017E009
:10206000CE0105960E94B90DF82E48E050E06CE2D2
:1020700071E0CE0101960E943612CE0101960E94B7
:10208000B90DE82ECE0104960E94B90DD82ECE01CE
:1020900007960E94B90D382F1A8219822AE0622F02
:1020A0000E943F12982F880F890F880F830F8A8311
:1020B0008D2D0E943F12982F880F890F880F8D0D4C
:1020C0008B838E2D0E943F12982F880F890F880FC7
:1020D0008E0D8C83602F70E02F2D30E0E1E2F1E077
:1020E00081E08117F0F49491290F311D8F5F3196B3
:1020F000F8CF8B8114E0823709F4B2CF18E0B0CF6B
:102100008B8113E0823709F4ABCF15E0A9CF19E03A
:10211000A7CF1AE0A5CF1BE0A3CF1CE0A1CF12E010
:102120009FCF133028F0802F837011F42F5F3F4F23
:10213000CB0103969695879596958795EDE6F1E008
:102140006E9FA0016F9F500D7E9F500D11244B5F1D
:102150005F4F840F951F820F931F67E070E00E940E
:102160004B12811101C087E08D832AE08F2D622FF1
:102170000E943F12982F880F890F880F8F0D8E8332
:10218000812F0E943F12982F990F890F880F180FE7
:102190001F83802F0E943F12982F880F890F880F6E
:1021A000800F888721E048E050E0BE016F5F7F4FDD
:1021B00080910602909107020E9481070E94D60832
:1021C0009FE09C878F778D8721E042E050E0BE0141
:1021D000645F7F4F80910602909107020E94810701
:1021E00000E010E02FB7F8948091F0019091F10198
:1021F000A091F201B091F3012FBF8093EB01909376
:10220000EC01A093ED01B093EE011982E09006027B
:10221000F090070220E041E050E0BE016F5F7F4F89
:10222000C7010E948107882341F047E050E0BE01CA
:102230006F5F7F4FC7010E94B107D9802A816B81F0
:102240008091EB019091EC01A091ED01B091EE0134
:102250008090E7019090E801A090E901B090EA0138
:1022600088199909AA09BB09893E9340A105B105BE
:1022700008F4ACC0822F90E034E0959587953A95AC
:10228000E1F7982F990F990FF82EF91AFF0CF20E1B
:10229000262F30E044E0359527954A95E1F7822FC7
:1022A000880F880FE22EE81AEE0CE60E2091E50169
:1022B0003091E6018EEE8E0D863008F0B4C08FEFBF
:1022C0008F0D8A3308F0AFC02639310534F42D5F05
:1022D0003F4F3093E6012093E50186E791E00E94AD
:1022E00018098090E5019090E601092C000CAA08DD
:1022F000BB084AE0C501B401B7FE0DC06DE28AE734
:1023000092E00E94B50366277727CB016819790907
:102310008A099B094AE00E942509E894D7F88FE4CE
:1023200091E00E9418096E2D70E090E080E04AE094
:102330000E9425096AE38AE792E00E94B5036F2DA7
:1023400070E090E080E04AE00E9425096AE38AE7B5
:1023500092E00E94B5038D2D90E024E0959587953D
:102360002A95E1F7982F990F990FC82EC91ACC0C0E
:10237000CD0CD12CF12CE12C4AE0C701B6010E9412
:1023800025098FE491E00E94180983E891E00E94FA
:1023900018094AE0C701B6010E9425098FE491E0BF
:1023A0000E9418098FE491E00E9418098091EB01C6
:1023B0009091EC01A091ED01B091EE018093E701C5
:1023C0009093E801A093E901B093EA018091D802CB
:1023D0009091D902892BF1F08091E5019091E6016D
:1023E000092E000CAA0BBB0B2091DB023091DC0202
:1023F000E091DD02E20FF32FF11DA083E091DE02F8
:10240000E20FF32FF11D9083E091DF02E20FF32F33
:10241000F11D80830E94C0060115110509F4E2CE6A
:102420000E940000DFCE121613060CF056CF235088
:1024300031094FCFCF93DF938091DB029091DC0283
:102440000E942313C091D602D091D702209759F051
:102450008A819B81009711F00E942313CE01DF91A6
:10246000CF910C942313DF91CF910895FB01DC01F0
:1024700002C005900D9241505040D8F70895991B25
:1024800079E004C0991F961708F0961B881F7A956B
:10249000C9F780950895AA1BBB1B51E107C0AA1F6D
:1024A000BB1FA617B70710F0A61BB70B881F991FF5
:1024B0005A95A9F780959095BC01CD010895A1E2A8
:1024C0001A2EAA1BBB1BFD010DC0AA1FBB1FEE1FAE
:1024D000FF1FA217B307E407F50720F0A21BB30BF9
:1024E000E40BF50B661F771F881F991F1A9469F775
:1024F00060957095809590959B01AC01BD01CF01D1
:102500000895EE0FFF1F0590F491E02D09940F93AD
:102510001F93CF93DF938230910510F482E090E017
:10252000E091E202F091E30230E020E0B0E0A0E0D0
:10253000309799F42115310509F44AC0281B390B4D
:1025400024303105D8F58A819B816115710589F1A7
:10255000FB0193838283FE0111C04081518102817E
:10256000138148175907E0F04817590799F4109755
:1025700061F012960C93129713961C933296CF012A
:10258000DF91CF911F910F9108950093E202109374
:10259000E302F4CF2115310551F04217530738F00B
:1025A000A901DB019A01BD01DF01F801C1CFEF01F3
:1025B000F9CF9093E3028093E202CDCFFE01E20FC8
:1025C000F31F819391932250310939832883D7CF08
:1025D0002091E0023091E102232B41F420910E0181
:1025E00030910F013093E1022093E00220910C0121
:1025F00030910D012115310541F42DB73EB74091C1
:10260000100150911101241B350BE091E002F09173
:10261000E102E217F307A0F42E1B3F0B281739073E
:1026200078F0AC014E5F5F4F2417350748F04E0F2E
:102630005F1F5093E1024093E002819391939FCFFB
:10264000F0E0E0E09CCFCF93DF930097E9F0FC014E
:10265000329713821282A091E202B091E302ED015F
:1026600030E020E01097A1F420813181820F931F88
:102670002091E0023091E1022817390709F061C08A
:10268000F093E102E093E002DF91CF910895EA0137
:10269000CE17DF07E8F54A815B819E0141155105A0
:1026A000B1F7E901FB83EA8349915991C40FD51F22
:1026B000EC17FD0761F4808191810296840F951FCC
:1026C000E90199838883828193819B838A83F0E0E7
:1026D000E0E012968D919C9113970097B9F52D919A
:1026E0003C911197CD010296820F931F2091E00239
:1026F0003091E1022817390739F6309751F51092D9
:10270000E3021092E202B093E102A093E002BCCF98
:10271000D383C28340815181840F951FC817D90785
:1027200061F44E5F5F4F88819981480F591F518333
:1027300040838A819B81938382832115310509F02F
:10274000B0CFF093E302E093E2029ECFFD01DC0103
:10275000C0CF13821282D7CFDC0101C06D934150EC
:102760005040E0F7089510E0CEEDD0E004C0FE0147
:102770000E9481122196CF3DD107C9F7F894FFCF6F
:10278000FFFFFFFF00E10000000000000000E40286
:10279000800000C1808100000000000000B503300F
:1027A00003CB0367021104CF03ED0300000000D840
:1027B00005AB0507068105A40591058205436F75E4
:1027C0006C646E27742066696E6420525443000D59
:1027D0000A00525443206C6F737420706F776572D7
:1027E0002C206C65742773207365742074686520D1
:1027F00074696D6521006272696768746E657373D0
:102800003A200063757272656E745365636F6E640F
:042810003A2000006A
:00000001FF
